:020000040800F2
:1000000000000220550300085D0300086503000896
:10001000ED030008F5030008490400080000000093
:100020000000000000000000000000009D04000827
:10003000A504000800000000AD040008D9DC000899
:10004000CD040008CD040008CD040008CD0400084C
:10005000CD040008CD040008CD040008CD0400083C
:10006000CD040008CD040008CD040008CD0400082C
:10007000BDDC0008CD040008A1DC0008CD040008A8
:1000800085DC000869DC0008CD040008CD04000808
:10009000CD040008CD040008CD040008CD040008FC
:1000A000CD040008CD040008CD040008CD040008EC
:1000B00035CE000895CE0008CD040008CD04000818
:1000C000CD040008CD040008CD040008CD040008CC
:1000D000CD040008DDDB0008F9DB000815DC0008B2
:1000E000CD040008353F0008CD040008CD04000809
:1000F000CD040008CD040008CD040008CD0400089C
:10010000CD040008CD040008CD040008CD0400088B
:10011000CD040008CD040008CD040008CD0400087B
:10012000CD040008CD0400084DDC0008CD04000813
:10013000CD040008CD040008CD040008CD0400085B
:10014000CD040008CD040008CD040008CD0400084B
:10015000CD040008CD04000831DC0008CD040008FF
:10016000CD040008CD040008CD040008CD0400082B
:10017000CD040008CD040008CD04000800000000F4
:10018000CD040008CD04000880B596B000AF05F09E
:100190006DF95F4B5F4A1A605F4B5E4A1A605F4BB6
:1001A0007B6524E07B6D1A1D7A651B683B647B6D63
:1001B0001A1D7A651B68FB637B6D1A1D7A651B68C7
:1001C000BB633B6C7B63FB6B3B63BB6BFB623B6B5F
:1001D000BB6207E07A6B131D7B63BB6A191DB962B2
:1001E00012681A60FA6ABB6A9A42F3D800BF7B6D44
:1001F0004B4A9342D6D3464B1B684A4A934204D19A
:10020000454B1B68484A934200D0FEE7474B414AA2
:100210001A60474B3F4A1A60464B3B651AE03B6DFC
:100220001A1D3A651B68BB643B6D1A1D3A651B6855
:100230007B64BB6C7B627B6C3B627B6AFB6104E032
:10024000FB691A1DFA6100221A603A6AFB699A4238
:10025000F6D800BF3B6D384A9342E0D3334B1B685E
:10026000002B03D1324B1B68002B00D0FEE705F0BA
:100270000BF93A1D07F108031146184605F038F846
:100280002E4A2F4BD31A9B103B610023FB6007E0E3
:100290002B4AFB6852F823309847FB680133FB6018
:1002A0003A69FB689A42F3DC264A274BD31A9B1023
:1002B0003B610023FB6007E0234AFB6852F82330D0
:1002C0009847FB680133FB603A69FB689A42F3DCAC
:1002D00000BFBB687A68114618460CF0EDFCF86464
:1002E0001A4A1B4BD31A9B10BB61BB697B6108E0A8
:1002F0007B69013B164A52F8233098477B69013BE2
:100300007B617B69002BF3DC00BFF86C04F0ACFF71
:1003100000000020BABADECA78000020D404000829
:10032000EC0400087856341232547698800000208D
:10033000E0070020EC040008FC040008FC040008AE
:10034000FC04000800050008FC040008040500087F
:100350000005000880B500AFFFF716FF80B400AFBE
:1003600000BEFEE71EF0040F0CBFEFF30880EFF3B2
:1003700009807146524A104700BF80B588B002AF6D
:1003800078603960174B5B6B7B61164B9B6B3B61F5
:10039000144B9B6AFB60134B1B6B03F00203002B97
:1003A00010D0104BDB6A002B0CDA4BF6AB6178688F
:1003B00005F006F90346002B04D00A4B4FF000422B
:1003C000DA620CE0084804F0B3FF3B6800933B6935
:1003D0007A69F968786805F05DF800BEFEE71837BD
:1003E000BD4680BD00ED00E00016010880B400AFFE
:1003F00000BEFEE71EF0040F0CBFEFF30880EFF322
:10040000098071462F4A104700BF80B588B002AFFF
:10041000786039600A4B5B6B7B61094B9B6B3B617E
:10042000074B9B6AFB60074804F082FF3B68009320
:100430003B697A69F968786805F02CF800BEFEE738
:1004400000ED00E0101601081EF0040F0CBFEFF3E2
:100450000880EFF3098071461B4A104700BF80B542
:1004600088B002AF786039600A4B5B6B7B61094BE7
:100470009B6B3B61074B9B6AFB60074804F058FF8E
:100480003B6800933B697A69F968786805F002F87F
:1004900000BEFEE700ED00E01C16010880B400AFCE
:1004A00000BEFEE780B400AF00BEFEE780B400AF40
:1004B00000BEFEE780B400AF00BFBD4680BC704701
:1004C0007B0300080B0400085F04000880B400AF41
:0404D00000BEFEE785
:1004D4009C1A0108000000207C0000209C1A0108DE
:1004E400000000100000001080000020E40700203D
:1004F400000000100000001029DD000839DD0008AC
:1005100080B500AF0E4B1B680D4A43F400731360A7
:100520000B4B1B680A4A43F480631360084B1B683B
:10053000074A43F480731360032000F051FE0F203C
:1005400003F0D0FB01F060FF0023184680BD00BF20
:10055000003C024080B400AF044B1B680133034AE7
:10056000136000BFBD4680BC704700BFAC070020D1
:1005700080B400AF024B1B681846BD4680BC704774
:10058000AC07002080B584B000AF78600023FB7317
:100590007B68002B01D1012357E17B681B68A24ACD
:1005A00093420ED07B681B68A04A934209D07B68B7
:1005B0001B689F4A934204D040F20D119D4804F0FD
:1005C000A9FE7B685B68002B13D07B685B68B3F582
:1005D000803F0ED07B685B68B3F5003F09D07B6835
:1005E0005B68B3F5403F04D04FF48771914804F045
:1005F00091FE7B689B68002B13D07B689B68B3F1EE
:10060000807F0ED07B689B68B3F1007F09D07B6848
:100610009B68B3F1407F04D040F20F11854804F08D
:1006200079FE7B681B69002B08D07B681B69012B56
:1006300004D04FF488717F4804F06CFE7B689B699E
:10064000002B08D07B689B69012B04D040F211116C
:10065000784804F05FFE7B689B6A002B54D07B686F
:100660009B6AB3F1807F4FD07B689B6AB3F1007FB8
:100670004AD07B689B6AB3F1407F45D07B689B6A18
:10068000B3F1806F40D07B689B6AB3F1A06F3BD021
:100690007B689B6AB3F1C06F36D07B689B6AB3F10D
:1006A000E06F31D07B689B6AB3F1006F2CD07B6820
:1006B0009B6AB3F1106F27D07B689B6AB3F1206F00
:1006C00022D07B689B6AB3F1306F1DD07B689B6A38
:1006D000B3F1406F18D07B689B6AB3F1506F13D0B1
:1006E0007B689B6AB3F1606F0ED07B689B6AB3F145
:1006F000706F09D07B689B6A4F4A934204D04FF4D5
:1007000089714C4804F006FE7B68DB68002B09D039
:100710007B68DB68B3F5006F04D040F213114548E5
:1007200004F0F8FD7B68DB69002B03D07B68DB6994
:10073000102B04D94FF48A713E4804F0EBFD7B681E
:100740001B6B002B08D07B681B6B012B04D040F285
:100750001511384804F0DEFD7B685B69012B0CD075
:100760007B685B69002B08D07B685B69022B04D037
:100770004FF48B712F4804F0CDFD7B681B6A002B72
:1007800008D07B681B6A012B04D040F2171129485E
:1007900004F0C0FD7B689B6A274A934217D07B68B0
:1007A000DB6A002B13D07B68DB6AB3F1805F0ED06D
:1007B0007B68DB6AB3F1005F09D07B68DB6AB3F169
:1007C000405F04D040F21B111A4804F0A3FD7B687F
:1007D0001B6C002B09D17B6800225A647B680022C5
:1007E00083F83C20786800F035F87B681B6C03F0D8
:1007F0001003002B22D17B681B6C23F4885323F059
:10080000020343F002027B681A64786800F0DEFAA3
:100810007B6800225A647B681B6C23F0030343F05F
:1008200001027B681A640BE00020014000210140B6
:1008300000220140601201080100000F0123FB7338
:100840007B68002283F83C20FB7B18461037BD46AE
:1008500080BD00BF80B483B000AF786000BF0C37AC
:10086000BD4680BC7047000080B584B000AF7860A2
:100870000023FB607B689B69002B08D07B689B6929
:10088000012B04D04FF4DD71564804F043FD7B6822
:10089000DB6A002B13D07B68DB6AB3F1805F0ED07C
:1008A0007B68DB6AB3F1005F09D07B68DB6AB3F178
:1008B000405F04D040F2BB114A4804F02BFD7B6836
:1008C00093F83C30012B01D1022387E07B680122A1
:1008D00083F83C207B681B689B6803F00103012BB5
:1008E00018D07B681B689A687B681B6842F001021D
:1008F0009A603D4B1B683D4AA2FB03239A0C1346AA
:100900005B001344FB6002E0FB68013BFB60FB689B
:10091000002BF9D17B681B689B6803F00103002B57
:100920005BD07B681B6C23F4E06323F0010343F48A
:1009300080727B681A647B681B685B6803F4806361
:10094000002B07D07B681B6C23F4405343F4805288
:100950007B681A647B681B6C03F48053002B06D001
:100960007B685B6C23F006027B685A6402E07B685C
:1009700000225A647B68002283F83C207B681B6855
:100980006FF022021A601A4B5B6803F01F03002B02
:100990000FD17B681B689B6803F04053002B1CD170
:1009A0007B681B689A687B681B6842F080429A608B
:1009B00013E07B681B680F4A93420ED17B681B686B
:1009C0009B6803F04053002B07D17B681B689A6833
:1009D0007B681B6842F080429A60002318461037FB
:1009E000BD4680BD601201080C00002083DE1B4361
:1009F000002301400020014080B584B000AF786042
:100A000039600023FB607B681B689B6803F480638C
:100A1000002B12D07B681B689B6803F48073002B4B
:100A20000BD07B681B6C43F020027B681A647B68E8
:100A3000002283F83C2001235CE0FFF799FDF86079
:100A40001AE03B68B3F1FF3F16D03B68002B07D09C
:100A5000FFF78EFD0246FB68D31A3A689A420BD222
:100A60007B681B6C43F004027B681A647B6800227D
:100A700083F83C2003233DE07B681B681B6803F080
:100A80000203022BDDD17B681B686FF012021A6033
:100A90007B681B6C43F400727B681A647B681B687C
:100AA0009B6803F04053002B23D17B689B69002B8C
:100AB0001FD17B681B68DB6A03F47003002B06D030
:100AC0007B681B689B6803F48063002B11D17B68F3
:100AD0001B6C23F480727B681A647B681B6C03F4C4
:100AE0008053002B05D17B681B6C43F001027B68AF
:100AF0001A64002318461037BD4680BD80B483B009
:100B000000AF78607B681B68DB6C18460C37BD460D
:100B100080BC704780B584B000AF78603960002336
:100B2000FB603B681B68122B04D940F20451A248B9
:100B300004F0F0FB3B685B68002B03D03B685B680C
:100B4000102B04D940F205519B4804F0E3FB3B68AD
:100B50009B68002B20D03B689B68012B1CD03B6816
:100B60009B68022B18D03B689B68032B14D03B6812
:100B70009B68042B10D03B689B68052B0CD03B680E
:100B80009B68062B08D03B689B68072B04D040F27B
:100B90000651894804F0BEFB7B6893F83C30012B7A
:100BA00001D1022303E17B68012283F83C203B68EA
:100BB0001B68092B25D97B681B68D9683B681B68B3
:100BC0009BB21A4613465B0013441E3B072202FAEF
:100BD00003F3DA437B681B680A40DA607B681B68B2
:100BE000D9683B689A683B681B689BB21846034605
:100BF0005B0003441E3B9A407B681B680A43DA6033
:100C000022E07B681B6819693B681B689BB21A4627
:100C100013465B001344072202FA03F3DA437B68AE
:100C20001B680A401A617B681B6819693B689A68EF
:100C30003B681B689BB2184603465B0003449A401E
:100C40007B681B680A431A613B685B68062B24D8E3
:100C50007B681B68596B3B685A6813469B001344BA
:100C6000053B1F2202FA03F3DA437B681B680A4044
:100C70005A637B681B68596B3B681B689BB21846BC
:100C80003B685A6813469B001344053B00FA03F285
:100C90007B681B680A435A634CE03B685B680C2B1B
:100CA00024D87B681B68196B3B685A6813469B0005
:100CB0001344233B1F2202FA03F3DA437B681B68C9
:100CC0000A401A637B681B68196B3B681B689BB200
:100CD00018463B685A6813469B001344233B00FAAE
:100CE00003F27B681B680A431A6323E07B681B6876
:100CF000D96A3B685A6813469B001344413B1F2244
:100D000002FA03F3DA437B681B680A40DA627B6805
:100D10001B68D96A3B681B689BB218463B685A68D7
:100D200013469B001344413B00FA03F27B681B68A7
:100D30000A43DA627B681B68204A934209D13B6808
:100D40001B68122B05D11E4B5B681D4A43F48003C0
:100D500053607B681B68194A934223D13B681B6828
:100D6000102B03D03B681B68112B1BD1144B5B6805
:100D7000134A43F4000353603B681B68102B11D1E6
:100D8000104B1B68104AA2FB03239A0C13469B00CE
:100D900013445B00FB6002E0FB68013BFB60FB6807
:100DA000002BF9D17B68002283F83C2000231846F1
:100DB0001037BD4680BD00BF601201080020014011
:100DC000002301400C00002083DE1B4380B584B06B
:100DD00000AF7860824B5B68814A23F440335360F4
:100DE0007F4B5A687B685B687D4913434B607B6827
:100DF0001B685A687B681B6822F480725A607B68A3
:100E00001B6859687B681B691A027B681B680A4368
:100E10005A607B681B685A687B681B6822F04072C6
:100E20005A607B681B6859687B689A687B681B6896
:100E30000A435A607B681B689A687B681B6822F4C7
:100E400000629A607B681B6899687B68DA687B68D7
:100E50001B680A439A607B689B6A624A934222D06D
:100E60007B681B689A687B681B6822F070629A60D6
:100E70007B681B6899687B689A6A7B681B680A4371
:100E80009A607B681B689A687B681B6822F04052F6
:100E90009A607B681B6899687B68DA6A7B681B6864
:100EA0000A439A600FE07B681B689A687B681B683E
:100EB00022F070629A607B681B689A687B681B6886
:100EC00022F040529A607B681B689A687B681B68B6
:100ED00022F002029A607B681B6899687B689B69B4
:100EE0005A007B681B680A439A607B681B6A002B68
:100EF00033D07B685B6A002B03D07B685B6A082B6E
:100F000004D940F20A61384804F004FA7B681B688F
:100F10005A687B681B6842F400625A607B681B68F1
:100F20005A687B681B6822F460425A607B685B6A7F
:100F30005A1E4FF46043FB60FB6893FAA3F3BB6057
:100F4000BB68B3FA83F302FA03F17B681B685A6843
:100F50007B681B680A435A6007E07B681B685A6815
:100F60007B681B6822F400625A607B681B68DA6A3F
:100F70007B681B6822F47002DA627B681B68D96A9E
:100F80007B68DB69013B1A057B681B680A43DA62F0
:100F90007B681B689A687B681B6822F400729A6001
:100FA0007B681B6899687B681B6B5A027B681B68AF
:100FB0000A439A607B681B689A687B681B6822F406
:100FC00080629A607B681B6899687B685B699A029B
:100FD0007B681B680A439A6000BF1037BD4680BD1E
:100FE000002301400100000F6012010880B485B0A9
:100FF00000AF78607B6803F00703FB600C4BDB6895
:10100000BB60BA684FF6FF031340BB60FB681A026F
:10101000BB68134343F0BF6343F40033BB60044A2F
:10102000BB68D36000BF1437BD4680BC704700BFAB
:1010300000ED00E080B400AF044BDB681B0A03F056
:1010400007031846BD4680BC704700BF00ED00E0B6
:1010500080B483B000AF0346FB71FB7903F01F023D
:10106000064997F907305B09012000FA02F241F8BE
:10107000232000BF0C37BD4680BC704700E100E074
:1010800080B483B000AF0346FB71FB7903F01F020D
:10109000074997F907305B09012000FA02F2203373
:1010A00041F8232000BF0C37BD4680BC704700BF0D
:1010B00000E100E080B483B000AF03463960FB710B
:1010C00097F90730002B0BDA3B68DAB20C49FB7951
:1010D00003F00F03043B1201D2B20B441A7609E06D
:1010E0003B68DAB2074997F907301201D2B20B44D4
:1010F00083F8002300BF0C37BD4680BC704700BF9B
:1011000000ED00E000E100E080B489B000AFF860DD
:10111000B9607A60FB6803F00703FB61FB69C3F108
:101120000703042B28BF0423BB61FB690433062B90
:1011300002D9FB69033B00E000237B614FF0FF32E3
:10114000BB6902FA03F3DA43BB681A407B699A4031
:101150004FF0FF317B6901FA03F3D9437B680B4001
:10116000134318462437BD4680BC704780B400AF97
:10117000BFF34F8F00BF074BDB6803F4E062054904
:10118000054B1343CB60BFF34F8F00BF00BF00BFC1
:10119000FCE700BF00ED00E00400FA0580B582B076
:1011A00000AF78607B68013BB3F1807F01D30123FE
:1011B0000FE00A4A7B68013B53600F214FF0FF307C
:1011C000FFF778FF054B00229A60044B07221A6054
:1011D000002318460837BD4680BD00BF10E000E080
:1011E00080B582B000AF78607B68072B0FD07B683A
:1011F000062B0CD07B68052B09D07B68042B06D00E
:101200007B68032B03D0A421044804F083F878689A
:10121000FFF7ECFE00BF0837BD4680BD9012010805
:1012200080B586B000AF0346B9607A60FB730023D7
:101230007B617B680F2B03D9BC210E4804F06AF850
:10124000BB680F2B03D9BD210A4804F063F8FFF7F0
:10125000F1FE78617A68B9687869FFF755FF024650
:1012600097F90F3011461846FFF724FF00BF1837D3
:10127000BD4680BD9012010880B582B000AF034624
:10128000FB7197F90730002B03DAD021054804F0F1
:1012900041F897F907301846FFF7DAFE00BF083724
:1012A000BD4680BD9012010880B582B000AF0346F4
:1012B000FB7197F90730002B03DAE021054804F0B1
:1012C00029F897F907301846FFF7DAFE00BF08370C
:1012D000BD4680BD9012010880B500AFFFF746FF04
:1012E00000BF80BD80B582B000AF78607868FFF73E
:1012F00055FF034618460837BD4680BD80B582B00D
:1013000000AF78607B68042B07D07B68002B04D08B
:1013100040F2B3110B4803F0FDFF7B68042B06D1AC
:10132000094B1B68084A43F00403136005E0064BB1
:101330001B68054A23F00403136000BF0837BD464D
:1013400080BD00BF9012010810E000E080B586B0BB
:1013500000AF786000237B61FFF70AF938617B6892
:10136000002B01D1012300E27B681B68974A93425E
:101370004ED07B681B68964A934249D07B681B68B5
:10138000944A934244D07B681B68934A93423FD06F
:101390007B681B68914A93423AD07B681B68904AED
:1013A000934235D07B681B688E4A934230D07B686D
:1013B0001B688D4A93422BD07B681B688B4A9342F3
:1013C00026D07B681B688A4A934221D07B681B68C1
:1013D000884A93421CD07B681B68874A934217D087
:1013E0007B681B68854A934212D07B681B68844ADD
:1013F00093420DD07B681B68824A934208D07B6879
:101400001B68814A934203D0C921804803F082FFC0
:101410007B685B68002B26D07B685B68B3F1007F3C
:1014200021D07B685B68B3F1806F1CD07B685B6800
:10143000B3F1C06F17D07B685B68B3F1006F12D057
:101440007B685B68B3F1206F0DD07B685B68B3F19C
:10145000406F08D07B685B68B3F1606F03D0CA212E
:101460006A4803F057FF7B689B68002B0BD07B68B2
:101470009B68402B07D07B689B68802B03D0CB21D7
:10148000624803F047FF7B68DB68B3F5007F07D055
:101490007B68DB68002B03D0CC215C4803F03AFF6B
:1014A0007B681B69B3F5806F07D07B681B69002BD5
:1014B00003D0CD21554803F02DFF7B685B69002BDD
:1014C0000DD07B685B69B3F5006F08D07B685B6902
:1014D000B3F5805F03D0CE214C4803F01BFF7B683F
:1014E0009B69002B0DD07B689B69B3F5005F08D02A
:1014F0007B689B69B3F5804F03D0CF21434803F04D
:1015000009FF7B68DB69002B0CD07B68DB69B3F5D6
:10151000807F07D07B68DB69202B03D0D0213B483C
:1015200003F0F8FE7B681B6A002B12D07B681B6AF5
:10153000B3F5803F0DD07B681B6AB3F5003F08D040
:101540007B681B6AB3F5403F03D0D1212F4803F0DD
:10155000E1FE7B685B6A002B07D07B685B6A042B2B
:1015600003D0D221294803F0D5FE7B685B6A002BAB
:1015700065D07B689B6A002B0FD07B689B6A012B30
:101580000BD07B689B6A022B07D07B689B6A032B7E
:1015900003D0D7211D4803F0BDFE7B68DB6A002B1A
:1015A00036D07B68DB6AB3F5000F31D07B68DB6A2D
:1015B000B3F1807F2CD07B68DB6AB3F1C07F27D08A
:1015C000D821124803F0A6FE22E000BF10600240BE
:1015D0002860024040600240586002407060024053
:1015E00088600240A0600240B8600240106402407F
:1015F0002864024040640240586402407064024023
:1016000088640240A0640240B8640240C412010829
:101610007B681B6B002B12D07B681B6BB3F5001F24
:101620000DD07B681B6BB3F5800F08D07B681B6BFC
:10163000B3F5C00F03D0D9214E4803F06BFE7B6891
:10164000002283F834207B68022283F835207B68EF
:101650001B681A687B681B6822F001021A600FE0A1
:10166000FEF786FF02463B69D31A052B08D97B6833
:1016700020225A657B68032283F83520032374E017
:101680007B681B681B6803F00103002BE8D17B68B3
:101690001B681B687B617A69374B13407B617B68F1
:1016A0005A687B689B681A437B68DB681A437B68CF
:1016B0001B691A437B685B691A437B689B691A4301
:1016C0007B68DB691A437B681B6A13437A6913439F
:1016D0007B617B685B6A042B07D17B68DA6A7B6875
:1016E0001B6B13437A6913437B617B681B687A69C0
:1016F0001A607B681B685B697B617B6923F0070369
:101700007B617B685B6A7A6913437B617B685B6A98
:10171000042B13D17B689B6A7A6913437B617868D9
:1017200000F0AEFA0346002B08D07B6840225A65D1
:101730007B68012283F83520012316E07B681B6853
:101740007A695A61786800F067FA0346FB607B6843
:10175000DB6D3F229A40FB689A607B6800225A65E5
:101760007B68012283F83520002318461837BD46D0
:1017700080BD00BFC41201083F8010F080B586B064
:1017800000AFF860B9607A603B600023FB75FB68CE
:101790009B6D3B613B68002B03D03B68B3F5803FFA
:1017A00004D340F2CD112B4803F0B4FDFB6893F84D
:1017B0003430012B01D1022348E0FB68012283F879
:1017C0003420FB6893F83530DBB2012B37D1FB684E
:1017D000022283F83520FB6800225A653B687A684C
:1017E000B968F86800F0EAF9FB68DB6D3F229A40BF
:1017F0003B699A60FB681B681A68FB681B6842F0CB
:1018000016021A60FB681B685A69FB681B6842F085
:1018100080025A61FB681B6C002B07D0FB681B68B9
:101820001A68FB681B6842F008021A60FB681B68B4
:101830001A68FB681B6842F001021A6005E0FB6849
:10184000002283F834200223FB75FB7D18461837ED
:10185000BD4680BDC412010880B483B000AF78607B
:101860007B6893F83530DBB2022B04D07B68802292
:101870005A6501230CE07B68052283F835207B68DC
:101880001B681A687B681B6822F001021A6000233B
:1018900018460C37BD4680BC7047000080B586B046
:1018A00000AF78600023BB60934B1B68934AA2FB98
:1018B00003239B0A7B617B689B6D3B613B691B68D3
:1018C000FB607B68DB6D08229A40FB681340002BAD
:1018D0001AD07B681B681B6803F00403002B13D02D
:1018E0007B681B681A687B681B6822F004021A6018
:1018F0007B68DB6D08229A403B699A607B685B6D70
:1019000043F001027B685A657B68DB6D7C4A9A4034
:10191000FB681340002B12D07B681B685B6903F0E7
:101920008003002B0BD07B68DB6D754A9A403B69C6
:101930009A607B685B6D43F002027B685A657B6846
:10194000DB6D704A9A40FB681340002B12D07B6815
:101950001B681B6803F00203002B0BD07B68DB6D58
:10196000684A9A403B699A607B685B6D43F0040269
:101970007B685A657B68DB6D10229A40FB681340D8
:10198000002B43D07B681B681B6803F00803002B07
:101990003CD07B68DB6D10229A403B699A607B6883
:1019A0001B681B6803F48023002B18D07B681B681E
:1019B0001B6803F40023002B08D17B681B6C002BF1
:1019C00024D07B681B6C786898471FE07B689B6C11
:1019D000002B1BD07B689B6C7868984716E07B686F
:1019E0001B681B6803F48073002B07D17B681B689E
:1019F0001A687B681B6822F008021A607B681B6CFF
:101A0000002B03D07B681B6C786898477B68DB6D84
:101A100020229A40FB681340002B00F094807B68E2
:101A20001B681B6803F01003002B00F08C807B68A0
:101A3000DB6D20229A403B699A607B6893F83530D1
:101A4000DBB2052B37D17B681B681A687B681B6883
:101A500022F016021A607B681B685A697B681B6853
:101A600022F080025A617B681B6C002B03D17B68DB
:101A70009B6C002B07D07B681B681A687B681B680F
:101A800022F008021A607B68DB6D3F229A403B69B6
:101A90009A607B68002283F834207B68012283F8F7
:101AA00035207B681B6D002B00F083807B681B6DED
:101AB000786898477DE07B681B681B6803F4802387
:101AC000002B21D07B681B681B6803F40023002BCC
:101AD00008D17B685B6C002B35D07B685B6C7868C9
:101AE000984730E07B68DB6B002B2CD07B68DB6B8E
:101AF0007868984727E000BF0C000020B5814E1B96
:101B000001008000040080007B681B681B6803F4F0
:101B10008073002B0FD17B681B681A687B681B6879
:101B200022F010021A607B68002283F834207B6860
:101B3000012283F835207B68DB6B002B03D07B68A8
:101B4000DB6B786898477B685B6D002B32D07B68D5
:101B50005B6D03F00103002B22D07B68052283F824
:101B600035207B681B681A687B681B6822F00102BD
:101B70001A60BB680133BB607A699A4207D37B68FD
:101B80001B681B6803F00103002BF2D100E000BFCB
:101B90007B68002283F834207B68012283F835209B
:101BA0007B68DB6C002B05D07B68DB6C7868984722
:101BB00000E000BF1837BD4680BD00BF80B485B0CF
:101BC00000AFF860B9607A603B60FB681B681A6818
:101BD000FB681B6822F480221A60FB681B683A6865
:101BE0005A60FB689B68402B08D1FB681B687A68C9
:101BF0009A60FB681B68BA68DA6007E0FB681B68DC
:101C0000BA689A60FB681B687A68DA6000BF1437AC
:101C1000BD4680BC7047000080B485B000AF7860DE
:101C20007B681B68DBB2103B134AA2FB03231B0932
:101C3000FB60124AFB6813441B781A467B68DA651E
:101C4000FB68032B09D97B681B6823F47F7323F09F
:101C500003031A1D7B689A6507E07B681B6823F401
:101C60007F7323F003037A6893657B689B6D184646
:101C70001437BD4680BC7047ABAAAAAAF41201086B
:101C800080B485B000AF78600023FB737B689B6AEB
:101C9000BB607B689B69002B28D1BB68032B63D892
:101CA00001A252F823F000BFB91C0008CB1C0008A9
:101CB000DB1C0008691D00087B68DB6A03F0807389
:101CC000002B53D00123FB7350E07B68DB6AB3F138
:101CD000C07F4DD10123FB734AE07B68DB6A03F0D0
:101CE0008073002B46D00123FB7343E07B689B6924
:101CF000B3F5005F25D1BB68032B3DD801A252F894
:101D000023F000BF151D00081B1D00082D1D000835
:101D1000331D00080123FB7335E07B68DB6A03F0A9
:101D20008073002B2AD00123FB7327E00123FB7370
:101D300029E07B68DB6AB3F1C07F21D10123FB730B
:101D40001EE0BB68022B03D9BB68032B03D01AE04B
:101D50000123FB7317E07B68DB6A03F08073002BC1
:101D600010D00123FB730DE000BF0CE000BF0AE0C0
:101D700000BF08E000BF06E000BF04E000BF02E0D3
:101D800000BF00E000BFFB7B18461437BD4680BC97
:101D9000704700BF80B588B000AF7860396000231D
:101DA0007B6100233B610023BB617B683E4A934219
:101DB00023D07B683D4A93421FD07B683C4A9342C4
:101DC0001BD07B683B4A934217D07B683A4A9342C8
:101DD00013D07B68394A93420FD07B68384A9342CC
:101DE0000BD07B68374A934207D07B68364A9342D0
:101DF00003D0C521354803F08DFA3B681B689BB2C0
:101E0000002B03D1C621314803F084FA3B685B689C
:101E1000002B35D03B685B68012B31D03B685B6899
:101E2000112B2DD03B685B68022B29D03B685B6887
:101E3000122B25D03B685B68254A934220D03B6833
:101E40005B68244A93421BD03B685B68224A9342FA
:101E500016D03B685B68214A934211D03B685B68AF
:101E60001F4A93420CD03B685B681E4A934207D0DE
:101E70003B685B68032B03D0C721144803F04AFA80
:101E80003B689B68002B0BD03B689B68012B07D0FD
:101E90003B689B68022B03D0C8210C4803F03AFA38
:101EA0000023FB6157E200BF000002400004024033
:101EB00000080240000C02400010024000140240E2
:101EC00000180240001C024000200240FC120108E1
:101ED000000011100000211000003110000012104D
:101EE00000002210000032100122FB6902FA03F305
:101EF0007B613B681B687A6913403B613A697B6987
:101F00009A4240F025823B685B68022B04D03B6814
:101F10005B68122B40F0BC803B681B69002B00F013
:101F200093803B681B69092B00F08E803B681B691E
:101F3000002B00F089803B681B69002B00F0848037
:101F40003B681B69002B7FD03B681B69002B7BD053
:101F50003B681B69012B77D03B681B69012B73D051
:101F60003B681B69022B6FD03B681B69022B6BD04F
:101F70003B681B69022B67D03B681B69032B63D04E
:101F80003B681B69042B5FD03B681B69042B5BD04B
:101F90003B681B69042B57D03B681B69052B53D04A
:101FA0003B681B69052B4FD03B681B69092B4BD045
:101FB0003B681B69062B47D03B681B69092B43D044
:101FC0003B681B69072B3FD03B681B69072B3BD045
:101FD0003B681B69072B37D03B681B69082B33D044
:101FE0003B681B69082B2FD03B681B69082B2BD043
:101FF0003B681B69092B27D03B681B69092B23D041
:102000003B681B690A2B1FD03B681B690A2B1BD03E
:102010003B681B690B2B17D03B681B690C2B13D03B
:102020003B681B690C2B0FD03B681B690D2B0BD039
:102030003B681B690C2B07D03B681B690F2B03D037
:10204000D921854803F066F9FB69DA087B68083214
:1020500053F82230BB61FB6903F007039B000F229A
:1020600002FA03F3DB43BA691340BB613B681A69A8
:10207000FB6903F007039B0002FA03F3BA691343F9
:10208000BB61FB69DA087B680832B96943F8221042
:102090007B681B68BB61FB695B00032202FA03F3E8
:1020A000DB43BA691340BB613B685B6803F0030222
:1020B000FB695B0002FA03F3BA691343BB617B68F7
:1020C000BA691A603B685B68012B0BD03B685B68A0
:1020D000022B07D03B685B68112B03D03B685B6821
:1020E000122B44D13B68DB68002B0FD03B68DB68C8
:1020F000012B0BD03B68DB68022B07D03B68DB6809
:10210000032B03D0EC21544803F004F97B689B684F
:10211000BB61FB695B00032202FA03F3DB43BA698C
:102120001340BB613B68DA68FB695B0002FA03F3AA
:10213000BA691343BB617B68BA699A607B685B6864
:10214000BB610122FB6902FA03F3DB43BA69134066
:10215000BB613B685B681B0903F00102FB6902FA83
:1021600003F3BA691343BB617B68BA695A607B6841
:10217000DB68BB61FB695B00032202FA03F3DB430C
:10218000BA691340BB613B689A68FB695B0002FA5D
:1021900003F3BA691343BB617B68BA69DA603B68D1
:1021A0005B6803F08053002B00F0D2800023FB60BB
:1021B0002A4B5B6C294A43F480435364274B5B6C86
:1021C00003F48043FB60FB68254AFB699B080233EC
:1021D00052F82330BB61FB6903F003039B000F221D
:1021E00002FA03F3DB43BA691340BB617B681D4A03
:1021F000934249D07B681C4A93422BD07B681B4A90
:10220000934225D07B681A4A93421FD07B68194AB3
:10221000934219D07B68184A934213D07B68174ABF
:1022200093420DD07B68164A934207D07B68154ACB
:10223000934201D1082328E0092326E0072324E064
:10224000062322E0052320E004231EE003231CE0F4
:1022500002231AE0012318E0FC12010800380240B2
:102260000038014000000240000402400008024023
:10227000000C02400010024000140240001802400E
:10228000001C0240002002400023FA6902F0030211
:1022900092009340BA691343BB613349FB699B08C1
:1022A0000233BA6941F82320304B1B68BB613B699C
:1022B000DB43BA691340BB613B685B6803F480335E
:1022C000002B03D0BA693B691343BB61274ABB6942
:1022D0001360264B5B68BB613B69DB43BA69134003
:1022E000BB613B685B6803F40033002B03D0BA6921
:1022F0003B691343BB611D4ABB6953601B4B9B6821
:10230000BB613B69DB43BA691340BB613B685B68F7
:1023100003F48013002B03D0BA693B691343BB61FC
:10232000124ABB699360114BDB68BB613B69DB43BD
:10233000BA691340BB613B685B6803F40013002B70
:1023400003D0BA693B691343BB61084ABB69D360D8
:10235000FB690133FB61FB690F2B7FF6C5AD00BF45
:1023600000BF2037BD4680BD00380140003C014021
:1023700080B584B000AF78600B467B807B88002BF3
:1023800004D14FF4C871094802F0C4FF7B681A6990
:102390007B881340002B02D00123FB7301E0002354
:1023A000FB73FB7B18461037BD4680BDFC1201084D
:1023B00080B582B000AF78600B467B8013467B709F
:1023C0007B88002B04D140F2B1110E4802F0A2FF2D
:1023D0007B78002B07D07B78012B04D04FF4D97188
:1023E000084802F097FF7B78002B03D07A887B683F
:1023F0009A6103E07B881A047B689A6100BF083702
:10240000BD4680BDFC12010880B400AF00BFBD46D0
:1024100080BC704780B58EB000AF786000237B63CE
:102420007B681B680F2B03D9F5219E4802F072FFD1
:102430007B681B6803F00103002B60D07B685B683E
:10244000002B0BD07B685B68012B07D07B685B6837
:10245000052B03D0FA21934802F05CFF924B9B6856
:1024600003F00C03042B0CD08F4B9B6803F00C0380
:10247000082B12D18C4B5B6803F48003B3F5800FFB
:102480000BD1894B1B6803F40033002B36D07B68DB
:102490005B68002B32D1012376E27B685A68834B5C
:1024A000D2B21A707B685B68002B13D0FEF760F81D
:1024B000786308E0FEF75CF802467B6BD31A642B66
:1024C00001D9032360E2784B1B6803F40033002B2F
:1024D000F0D014E0FEF74CF8786308E0FEF748F817
:1024E00002467B6BD31A642B01D903234CE26E4B5B
:1024F0001B6803F40033002BF0D100E000BF7B68C1
:102500001B6803F00203002B00F08E807B68DB6801
:10251000002B08D07B68DB68012B04D04FF4967148
:10252000604802F0F7FE7B681B691F2B04D940F25C
:102530002D115C4802F0EEFE5B4B9B6803F00C0330
:10254000002B0BD0584B9B6803F00C03082B26D1B3
:10255000554B5B6803F48003002B20D1524B1B6862
:1025600003F00203002B05D07B68DB68012B01D050
:10257000012309E24C4B1B6823F0F8027B681969C0
:10258000F8233B633B6B93FAA3F3FB62FB6AB3FA5A
:1025900083F301FA03F3444913430B6044E07B687F
:1025A000DB68002B2AD0424B01221A60FDF7E0FFC6
:1025B000786308E0FDF7DCFF02467B6BD31A022B41
:1025C00001D90323E0E1384B1B6803F00203002B21
:1025D000F0D0354B1B6823F0F8027B681969F823AB
:1025E000BB62BB6A93FAA3F37B627B6AB3FA83F3A1
:1025F00001FA03F32C4913430B6015E02C4B002226
:102600001A60FDF7B5FF786308E0FDF7B1FF0246F9
:102610007B6BD31A022B01D90323B5E1224B1B6834
:1026200003F00203002BF0D17B681B6803F0080362
:10263000002B47D07B685B69002B08D07B685B6907
:10264000012B04D040F26D11164802F063FE7B6846
:102650005B69002B16D0174B01221A60FDF788FF2B
:10266000786308E0FDF784FF02467B6BD31A022BE8
:1026700001D9032388E10C4B5B6F03F00203002BAD
:10268000F0D01FE00B4B00221A60FDF771FF78635A
:1026900012E0FDF76DFF02467B6BD31A022B0BD9BC
:1026A000032371E13C130108003802400238024064
:1026B00000004742800E4742A94B5B6F03F00203C4
:1026C000002BE6D17B681B6803F00403002B6BD062
:1026D0007B689B68002B0CD07B689B68012B08D023
:1026E0007B689B68052B04D040F297119D4802F04F
:1026F00011FE0023BB609A4B1B6C994A43F0805338
:102700001364974B1B6C03F08053BB60BB68964B04
:102710001B68954A43F480731360FDF729FF7863C3
:1027200008E0FDF725FF02467B6BD31A022B01D987
:10273000032329E18C4B1B6803F48073002BF0D03A
:102740007B689A68894BD2B21A707B689B68002BB1
:1027500015D0FDF70DFF78630AE0FDF709FF02468B
:102760007B6BD31A41F28832934201D903230BE1E8
:102770007B4B1B6F03F00203002BEED014E0FDF740
:10278000F7FE78630AE0FDF7F3FE02467B6BD31A8F
:1027900041F28832934201D90323F5E0704B1B6F5D
:1027A00003F00203002BEED17B689B69002B0CD059
:1027B0007B689B69012B08D07B689B69022B04D046
:1027C0004FF4E671674802F0A5FD7B689B69002B1A
:1027D00000F0D980624B9B6803F00C03082B00F0DB
:1027E000D0807B689B69022B40F0AA807B68DB6904
:1027F000002B09D07B68DB69B3F5800F04D040F271
:10280000D511584802F086FD7B681B6A3F2B04D91E
:102810004FF4EB71534802F07DFD7B685B6A312B0E
:1028200004D97B685B6AB3F5D87F04D940F2D7112D
:102830004C4802F06FFD7B689B6A022B10D07B68CE
:102840009B6A042B0CD07B689B6A062B08D07B68A4
:102850009B6A082B04D04FF4EC71424802F05AFDF9
:102860007B68DB6A032B03D97B68DB6A0F2B04D9F7
:1028700040F2D9113B4802F04DFD3D4B00221A6059
:10288000FDF776FE786308E0FDF772FE02467B6B8B
:10289000D31A022B01D9032376E0314B1B6803F0D6
:1028A0000073002BF0D17B68DA697B681B6A1A43DE
:1028B0007B68596A47F6C0733B613B6993FAA3F39F
:1028C000FB60FB68B3FA83F301FA03F31A437B68F6
:1028D0009B6A5B08591E4FF44033BB61BB6993FA96
:1028E000A3F37B617B69B3FA83F301FA03F31A4321
:1028F0007B68D96A4FF070633B623B6A93FAA3F33B
:10290000FB61FB69B3FA83F301FA03F31449134340
:102910004B60174B01221A60FDF72AFE786308E02E
:10292000FDF726FE02467B6BD31A022B01D9032347
:102930002AE00B4B1B6803F00073002BF0D022E061
:102940000B4B00221A60FDF713FE786312E0FDF7CF
:102950000FFE02467B6BD31A022B0BD9032313E025
:10296000003802403C1301080070004070380240FB
:1029700060004742064B1B6803F00073002BE6D152
:1029800001E0012300E0002318463837BD4680BD32
:102990000038024080B586B000AF7860396000230F
:1029A0007B617B681B68002B03D07B681B680F2B47
:1029B00004D940F23721914802F0ACFC3B68002B6F
:1029C00019D03B68012B16D03B68022B13D03B6813
:1029D000032B10D03B68042B0DD03B68052B0AD08D
:1029E0003B68062B07D03B68072B04D04FF40E71D1
:1029F000824802F08FFC824B1B6803F00F033A6899
:102A00009A420CD97E4B3A68D2B21A707C4B1B6842
:102A100003F00F033A689A4201D0012369E17B6811
:102A20001B6803F00203002B31D07B689B68002BEE
:102A300024D07B689B68802B20D07B689B68902B80
:102A40001CD07B689B68A02B18D07B689B68B02B40
:102A500014D07B689B68C02B10D07B689B68D02B00
:102A60000CD07B689B68E02B08D07B689B68F02BC0
:102A700004D040F24F21614802F04CFC614B9B684E
:102A800023F0F0027B689B685E4913438B607B6890
:102A90001B6803F00103002B00F09B807B685B68E0
:102AA000002B10D07B685B68012B0CD07B685B68C7
:102AB000022B08D07B685B68032B04D040F25621C0
:102AC0004E4802F027FC7B685B68012B07D14D4B19
:102AD0001B6803F40033002B19D1012309E17B6843
:102AE0005B68022B03D07B685B68032B07D1454BE7
:102AF0001B6803F00073002B09D10123F9E0414B5F
:102B00001B6803F00203002B01D10123F1E03D4BD0
:102B10009B6823F003027B685B683A4913438B6030
:102B2000FDF726FD78617B685B68012B12D10AE016
:102B3000FDF71EFD02467B69D31A41F288329342AB
:102B400001D90323D5E02F4B9B6803F00C03042B22
:102B5000EED13EE07B685B68022B12D10AE0FDF704
:102B600007FD02467B69D31A41F28832934201D9AC
:102B70000323BEE0234B9B6803F00C03082BEED12C
:102B800027E07B685B68032B1DD10AE0FDF7F0FCB2
:102B900002467B69D31A41F28832934201D903235A
:102BA000A7E0184B9B6803F00C030C2BEED110E050
:102BB000FDF7DEFC02467B69D31A41F2883293426C
:102BC00001D9032395E00F4B9B6803F00C03002B06
:102BD000EED10B4B1B6803F00F033A689A4213D2F5
:102BE000074B3A68D2B21A70054B1B6803F00F030B
:102BF0003A689A4208D001237BE000BF3C130108E9
:102C0000003C0240003802407B681B6803F004036C
:102C1000002B25D07B68DB68002B18D07B68DB6835
:102C2000B3F5805F13D07B68DB68B3F5A05F0ED08F
:102C30007B68DB68B3F5C05F09D07B68DB68B3F500
:102C4000E05F04D04FF42D712C4802F063FB2C4B55
:102C50009B6823F4E0527B68DB68294913438B604F
:102C60007B681B6803F00803002B26D07B681B6978
:102C7000002B18D07B681B69B3F5805F13D07B688D
:102C80001B69B3F5A05F0ED07B681B69B3F5C05F0D
:102C900009D07B681B69B3F5E05F04D040F2BB212B
:102CA000164802F037FB164B9B6823F460427B68A2
:102CB0001B69DB00124913438B6000F027F80146C3
:102CC0000F4B9B6803F0F002F0233B613B6993FAE2
:102CD000A3F3FB60FB68B3FA83F322FA03F3094A18
:102CE000D35C21FA03F3084A13600F2000F0FAFFC7
:102CF000002318461837BD4680BD00BF3C130108AD
:102D0000003802402C1301080C00002080B48BB066
:102D100000AF0023FB6100237B620023BB61002323
:102D20003B62374B9B6803F00C03082B0CD0082B3D
:102D30005DD8002B02D0042B03D058E0314B3B620E
:102D400058E0314B3B6255E02D4B5B6803F03F038D
:102D5000FB612B4B5B6803F48003002B17D02A4ADE
:102D6000FB69B2FBF3F2264B596847F6C0730B4080
:102D700047F6C0717961796991FAA1F139613969D0
:102D8000B1FA81F1CB4003FB02F37B6216E01D4AEE
:102D9000FB69B2FBF3F21A4B596847F6C0730B405C
:102DA00047F6C071F960F96891FAA1F1B960B968A4
:102DB000B1FA81F1CB4003FB02F37B62104B5B68FD
:102DC00003F440324FF440337B607B6893FAA3F303
:102DD0003B603B68B3FA83F322FA03F301335B00F1
:102DE000BB617A6ABB69B2FBF3F33B6202E0054B5D
:102DF0003B6200BF3B6A18462C37BD4680BC70471B
:102E0000003802400024F40000127A0080B400AFC1
:102E1000024B1B681846BD4680BC70470C00002062
:102E200080B582B000AFFFF7F1FF01460B4B9B6806
:102E300003F4E0524FF4E0537B607B6893FAA3F312
:102E40003B603B68B3FA83F322FA03F3044AD35C92
:102E500021FA03F318460837BD4680BD003802400A
:102E60002C13010880B582B000AFFFF7CFFF0146F9
:102E70000B4B9B6803F460424FF460437B607B68BC
:102E800093FAA3F33B603B68B3FA83F322FA03F3AC
:102E9000044AD35C21FA03F318460837BD4680BDC7
:102EA000003802402C13010880B58AB000AF78606A
:102EB00000237B6200233B627B681B68002B03D0EE
:102EC0007B681B68072B04D94FF4EC619C4802F027
:102ED00021FA7B681B6803F00103002B65D07B6837
:102EE0009B68012B03D97B689B68072B04D940F2B0
:102EF0006671934802F00EFA7B685B68312B04D947
:102F00007B685B68B3F5D87F04D940F267718C4861
:102F100002F000FA8B4B00221A60FDF729FB786261
:102F200008E0FDF725FB02467B6AD31A022B01D984
:102F30000323B5E1844B1B6803F00063002BF0D141
:102F40007B685A6847F6C0737B617B6993FAA3F389
:102F50003B613B69B3FA83F39A407B6899684FF011
:102F6000E043FB61FB6993FAA3F3BB61BB69B3FA6E
:102F700083F301FA03F374491343C1F88430714BAE
:102F800001221A60FDF7F4FA786208E0FDF7F0FA22
:102F900002467B6AD31A022B01D9032380E16A4BD4
:102FA0001B6803F00063002BF0D07B681B6803F004
:102FB0000203002B00F073817B68DB68B3F5807F30
:102FC00000F0A6807B68DB68B3F5007F00F0A0808E
:102FD0007B68DB685D4A934200F09A807B68DB681F
:102FE0005B4A934200F094807B68DB68594A9342C5
:102FF00000F08E807B68DB68574A934200F088803F
:103000007B68DB68554A934200F082807B68DB680E
:10301000534A93427CD07B68DB68524A934277D014
:103020007B68DB68504A934272D07B68DB684F4A0A
:1030300093426DD07B68DB684D4A934268D07B68D1
:10304000DB684C4A934263D07B68DB684A4A934210
:103050005ED07B68DB68494A934259D07B68DB6865
:10306000474A934254D07B68DB68464A93424FD02C
:103070007B68DB68444A93424AD07B68DB68434AFA
:10308000934245D07B68DB68414A934240D07B68DD
:10309000DB68404A93423BD07B68DB683E4A934200
:1030A00036D07B68DB683D4A934231D07B68DB6871
:1030B0003B4A93422CD07B68DB683A4A934227D044
:1030C0007B68DB68384A934222D07B68DB68374AEA
:1030D00093421DD07B68DB68354A934218D07B68E9
:1030E000DB68344A934213D07B68DB68324A9342F0
:1030F0000ED07B68DB68314A934209D07B68DB687D
:103100002F4A934204D04FF4F3610D4802F002F9C4
:103110000023FB600C4B1B6C0B4A43F08053136481
:10312000094B1B6C03F08053FB60FB68254B1B684D
:10313000244A43F480731360FDF71AFA78624CE076
:103140006C13010868004742003802400003020087
:103150000003030000030400000305000003060051
:1031600000030700000308000003090000030A0031
:1031700000030B0000030C0000030D0000030E0011
:1031800000030F00000310000003110000031200F1
:1031900000031300000314000003150000031600D1
:1031A00000031700000318000003190000031A00B1
:1031B00000031B0000031C0000031D0000031E0091
:1031C00000031F0000700040FDF7D2F902467B6A41
:1031D000D31A022B01D9032362E0334B1B6803F49B
:1031E0008073002BF0D0314B1B6F03F440733B62B4
:1031F0003B6A002B2FD07B68DB6803F440733A6A8C
:103200009A4228D0294B1B6F23F440733B62284B12
:1032100001221A60264B00221A60244A3B6A136777
:10322000224B1B6F03F00103002B14D0FDF7A0F914
:1032300078620AE0FDF79CF902467B6AD31A41F2F4
:103240008832934201D903232AE0184B1B6F03F005
:103250000203002BEED07B68DB6803F44073B3F508
:10326000407F0DD1114B9B6823F4F8127B68DB681B
:1032700023F0704323F440730C4913438B6005E043
:103280000A4B9B68094A23F4F8139360074B1A6FA3
:103290007B68DB68C3F30B03044913430B6700230C
:1032A00018462837BD4680BD0070004000380240F7
:1032B000400E474280B582B000AF78607B68002B3B
:1032C00001D10123BBE07B685B68402B07D07B68A2
:1032D0005B68002B03D0D4215B4802F01BF87B68AD
:1032E0009B687F2B03D9D521574802F013F87B68E0
:1032F000DB68B3F5004F03D3D621534802F00AF838
:103300007B681B69002B12D07B681B69B3F5001F1B
:103310000DD07B681B69B3F5800F08D07B681B69F3
:10332000B3F5C00F03D0D721474801F0F3FF7B6806
:103330005B69002B08D07B685B69B3F5801F03D005
:10334000D821414801F0E6FF7B689B69002B08D03B
:103350007B689B69B3F5802F03D0D9213A4801F0EF
:10336000D9FF7B685B7FDBB2002B05D17B68002235
:103370001A77786800F06AF87B6802225A777B68CF
:103380001B68CA225A627B681B6853225A6278689B
:1033900000F0ACF80346002B08D07B681B68FF22C6
:1033A0005A627B6804225A77012348E07B681B68D5
:1033B0009B687A68126823F4E00323F0400393606B
:1033C0007B681B6899687B685A687B681B691A432D
:1033D0007B685B691A437B681B680A439A607B6859
:1033E0001B687A68D2681A617B681B6819697B68F8
:1033F0009B681A047B681B680A431A617B681B6818
:10340000DA687B681B6822F08002DA607B681B68E0
:103410001A6C7B681B6822F480221A647B681B6824
:10342000196C7B689A697B681B680A431A647B681D
:103430001B68FF225A627B6801225A7700231846D4
:103440000837BD4680BD00BFA013010880B483B01B
:1034500000AF786000BF0C37BD4680BC70470000ED
:1034600080B582B000AF78607B681B68DB6803F4CE
:103470008073002B12D07B681B689B6803F4805319
:10348000002B0BD0786800F00FFD7B681B68DB68B1
:10349000DAB27B681B6862F4C072DA607B681B6812
:1034A000DB6803F40073002B12D07B681B689B68F9
:1034B00003F40053002B0BD0786800F043F87B68CE
:1034C0001B68DB68DAB27B681B6862F42072DA6022
:1034D000054B4FF400325A617B6801225A7700BFD6
:1034E0000837BD4680BD00BF003C014080B584B0B8
:1034F00000AF78600023FB607B681B68DB6803F02B
:103500004003002B19D17B681B684FF0FF32DA6053
:10351000FDF72EF8F86009E0FDF72AF80246FB688F
:10352000D31AB3F57A7F01D9032307E07B681B68C0
:10353000DB6803F04003002BEED000231846103761
:10354000BD4680BD80B483B000AF786000BF0C374B
:10355000BD4680BC7047000080B582B000AF786087
:103560007B68002B01D1012391E07B681B684A4AEC
:10357000934244D07B681B68B3F1804F3FD07B6897
:103580001B68464A93423AD07B681B68444A934280
:1035900035D07B681B68434A934230D07B681B68F8
:1035A000414A93422BD07B681B68404A934226D005
:1035B0007B681B683E4A934221D07B681B683D4A6A
:1035C00093421CD07B681B683B4A934217D07B68B0
:1035D0001B683A4A934212D07B681B68384A934270
:1035E0000DD07B681B68374A934208D07B681B6804
:1035F000354A934203D0D921344801F08BFE7B68D1
:103600009B68002B13D07B689B68102B0FD07B68C6
:103610009B68202B0BD07B689B68402B07D07B6876
:103620009B68602B03D0DA21284801F073FE7B6889
:103630001B69002B0DD07B681B69B3F5807F08D018
:103640007B681B69B3F5007F03D0DB211F4801F0C5
:1036500061FE7B6893F83930DBB2002B06D17B68C2
:10366000002283F83820786800F032F87B68022264
:1036700083F839207B681A687B6804331946104642
:1036800000F076FA7B68012283F83920002318467F
:103690000837BD4680BD00BF000001400004004067
:1036A00000080040000C00400010004000140040E2
:1036B0000004014000400140004401400048014036
:1036C00000180040001C004000200040D0130108FA
:1036D00080B483B000AF786000BF0C37BD4680BCBB
:1036E0007047000080B582B000AF78607B681B68CF
:1036F0002E4A934245D07B681B68B3F1804F40D07F
:103700007B681B682A4A93423BD07B681B68294A26
:10371000934236D07B681B68274A934231D07B683E
:103720001B68264A93422CD07B681B68244A93422C
:1037300027D07B681B68234A934222D07B681B6892
:10374000214A93421DD07B681B68204A934218D0BF
:103750007B681B681E4A934213D07B681B681D4A16
:1037600093420ED07B681B681B4A934209D07B684A
:103770001B681A4A934204D04FF4B271184801F002
:10378000C9FD7B681B68DA687B681B6842F0010230
:10379000DA607B681B681A687B681B6842F001026C
:1037A0001A60002318460837BD4680BD000001405E
:1037B0000004004000080040000C004000100040E1
:1037C000001400400004014000400140004401405A
:1037D0000048014000180040001C0040002000404C
:1037E000D013010880B582B000AF78607B681B6899
:1037F000364A934245D07B681B68B3F1804F40D076
:103800007B681B68324A93423BD07B681B68314A15
:10381000934236D07B681B682F4A934231D07B6835
:103820001B682E4A93422CD07B681B682C4A93421B
:1038300027D07B681B682B4A934222D07B681B6889
:10384000294A93421DD07B681B68284A934218D0AE
:103850007B681B68264A934213D07B681B68254A05
:1038600093420ED07B681B68234A934209D07B6841
:103870001B68224A934204D040F27911204801F09B
:1038800049FD7B681B68DA687B681B6822F00102CF
:10389000DA607B681B681A6A41F211131340002B2F
:1038A0000FD17B681B681A6A40F244431340002B17
:1038B00007D17B681B681A687B681B6822F00102CD
:1038C0001A60002318460837BD4680BD000001403D
:1038D0000004004000080040000C004000100040C0
:1038E0000014004000040140004001400044014039
:1038F0000048014000180040001C0040002000402B
:10390000D013010880B582B000AF78607B681B6877
:103910001B6903F00203022B22D17B681B68DB6862
:1039200003F00203022B1BD17B681B686FF00202BD
:103930001A617B6801221A767B681B689B6903F019
:103940000303002B03D0786800F0F6F805E07868F0
:1039500000F0E9F8786800F0F8F87B6800221A7641
:103960007B681B681B6903F00403042B22D17B686E
:103970001B68DB6803F00403042B1BD17B681B6806
:103980006FF004021A617B6802221A767B681B685A
:103990009B6903F44073002B03D0786800F0CCF8E7
:1039A00005E0786800F0BFF8786800F0CEF87B6832
:1039B00000221A767B681B681B6903F00803082B3A
:1039C00022D17B681B68DB6803F00803082B1BD13E
:1039D0007B681B686FF008021A617B6804221A7604
:1039E0007B681B68DB6903F00303002B03D0786856
:1039F00000F0A2F805E0786800F095F8786800F02B
:103A0000A4F87B6800221A767B681B681B6903F0A8
:103A10001003102B22D17B681B68DB6803F01003B6
:103A2000102B1BD17B681B686FF010021A617B683A
:103A300008221A767B681B68DB6903F44073002B4D
:103A400003D0786800F078F805E0786800F06BF84B
:103A5000786800F07AF87B6800221A767B681B6829
:103A60001B6903F00103012B0ED17B681B68DB6827
:103A700003F00103012B07D17B681B686FF0010283
:103A80001A61786800F046F87B681B681B6903F0D0
:103A90008003802B0ED17B681B68DB6803F08003FA
:103AA000802B07D17B681B686FF080021A617868F1
:103AB00000F00FF97B681B681B6903F04003402B83
:103AC0000ED17B681B68DB6803F04003402B07D1F5
:103AD0007B681B686FF040021A61786800F03EF85E
:103AE0007B681B681B6903F02003202B0ED17B68C9
:103AF0001B68DB6803F02003202B07D17B681B6861
:103B00006FF020021A61786800F0DAF800BF083719
:103B1000BD4680BD80B483B000AF786000BF0C3775
:103B2000BD4680BC704780B483B000AF786000BFF2
:103B30000C37BD4680BC704780B483B000AF78605E
:103B400000BF0C37BD4680BC704780B483B000AF67
:103B5000786000BF0C37BD4680BC704780B483B02E
:103B600000AF786000BF0C37BD4680BC70470000D6
:103B700080B485B000AF786039600023FB607B685B
:103B80001B68FB607B68434A934213D07B68B3F1A8
:103B9000804F0FD07B68404A93420BD07B683F4AEE
:103BA000934207D07B683E4A934203D07B683D4AEC
:103BB000934201D1012300E00023002B08D0FB68D1
:103BC00023F07003FB603B685B68FA681343FB609B
:103BD0007B68304A93422BD07B68B3F1804F27D06B
:103BE0007B682D4A934223D07B682C4A93421FD096
:103BF0007B682B4A93421BD07B682A4A934217D09A
:103C00007B68294A934213D07B68284A93420FD09D
:103C10007B68274A93420BD07B68264A934207D0A1
:103C20007B68254A934203D07B68244A934201D1A2
:103C3000012300E00023002B08D0FB6823F440732D
:103C4000FB603B68DB68FA681343FB607B68FA68DB
:103C50001A603B689A687B68DA623B681A687B681E
:103C60009A627B680B4A934203D07B680D4A934269
:103C700001D1012300E00023002B03D03B681A6927
:103C80007B681A637B6801225A6100BF1437BD4606
:103C900080BC704700000140000400400008004064
:103CA000000C00400004014000400140004401407D
:103CB0000048014000180040001C00400020004067
:103CC00080B483B000AF786000BF0C37BD4680BCC5
:103CD000704780B483B000AF786000BF0C37BD463A
:103CE00080BC704780B594B000AF78600023FB645F
:103CF0000123FB6100237B6301233B62634BBB61B8
:103D000007F11C031846FEF785FB0346002B40F025
:103D1000B7800223FB6007F10C031846FFF7C4F8D5
:103D20000346002B40F0AC80594B01221A60594BDE
:103D3000594A1A60574B00225A60564B63229A60C8
:103D4000544B0922DA60534B00221A61514B002276
:103D50005A61504B00229A614E48FFF7ABFA4D4B27
:103D60001B68CA225A624B4B1B6853225A62494B4A
:103D70001B689A68474B1B6822F480729A60454B17
:103D80001B68DB68DAB2434B1B6862F4C072DA600E
:103D90000023FB640CE0FB6C5A1CFA643F4A126877
:103DA0003F49A1FB02125209934201D1012368E06D
:103DB000384B1B68DB6803F00103002BEBD0354B5D
:103DC0001B680122DA61334B1B689A68314B1B6810
:103DD00042F480729A602F4B1B689A682D4B1B68C7
:103DE00042F480529A602F4B1B682E4A43F40033F2
:103DF00013602C4B9B682B4A43F400339360254B94
:103E00001B68DB6803F04003002B1BD1214B1B68B0
:103E10004FF0FF32DA600023FB640CE0FB6C5A1CAD
:103E2000FA641E4A12681E49A1FB0212520993420B
:103E300001D1012325E0174B1B68DB6803F0400329
:103E4000002BEBD0134B1B6800225A60114B1B68F0
:103E500000221A600F4B1B68DA680E4B1B6822F0B9
:103E60008002DA600B4B1B68FF225A6200227968DD
:103E70002920FDF7D5F92920FDF7FEF9002300E000
:103E8000012318465037BD4680BD00BF000308001F
:103E90003C0E4742B0070020002800400C000020E4
:103EA000ABAAAAAA003C014080B584B000AF7860FC
:103EB0000023FB60FCF74EFB7B681B68CA225A623A
:103EC0007B681B6853225A627B681B684FF0FF3285
:103ED000DA600AE0FB685A1CFA60144A1268144956
:103EE000A1FB02125209934207D07B681B68DB6872
:103EF00003F04003002BEDD000E000BF7B681B689F
:103F000000225A607B681B6800221A607B681B686D
:103F1000DA687B681B6822F08002DA607B681B68C5
:103F2000FF225A6200BF1037BD4680BD0C00002042
:103F3000ABAAAAAA80B500AF0248FFF791FA00BF6A
:103F400080BD00BFB007002080B582B000AF7860B0
:103F50007B68002B01D10123B2E07B689B69002BB9
:103F60002FD07B681B68584A934212D07B681B682D
:103F7000564A93420DD07B681B68554A934208D03D
:103F80007B681B68534A934203D0FE21524801F0DC
:103F9000C1F97B689B69002B36D07B689B69B3F5C0
:103FA000807F31D07B689B69B3F5007F2CD07B6824
:103FB0009B69B3F5407F27D0FF21474801F0AAF95C
:103FC00022E07B681B68404A93421DD07B681B68D7
:103FD0003E4A934218D07B681B683D4A934213D0F7
:103FE0007B681B683D4A93420ED07B681B683C4A45
:103FF000934209D07B681B68364A934204D040F252
:104000000311354801F086F97B689B68002B09D0C5
:104010007B689B68B3F5805F04D040F205112E48A1
:1040200001F078F97B68DB69002B09D07B68DB69DC
:10403000B3F5004F04D04FF48371274801F06AF9BB
:104040007B6893F83930DBB2002B06D17B68002205
:1040500083F83820786800F09BF87B68242283F886
:1040600039207B681B68DA687B681B6822F4005281
:10407000DA60786800F098FE7B681B681A697B68D4
:104080001B6822F490421A617B681B685A697B683E
:104090001B6822F02A025A617B681B68DA687B6819
:1040A0001B6842F40052DA607B680022DA637B68A6
:1040B000202283F839207B68202283F83A200023CD
:1040C00018460837BD4680BD00100140004400403E
:1040D000004800400014014000140108004C00405A
:1040E0000050004080B582B000AF78607B68002B44
:1040F00001D1012339E07B681B681E4A93421DD021
:104100007B681B681C4A934218D07B681B681B4A5B
:10411000934213D07B681B68194A93420ED07B6888
:104120001B68184A934209D07B681B68164A934261
:1041300004D04FF4FB71154801F0ECF87B682422A1
:1041400083F83920786800F02CF87B680022DA6365
:104150007B68002283F839207B68002283F83A20AC
:104160007B68002283F83820002318460837BD46B4
:1041700080BD00BF001001400044004000480040E6
:10418000004C0040005000400014014000140108A1
:1041900080B483B000AF786000BF0C37BD4680BCF0
:1041A000704780B483B000AF786000BF0C37BD4665
:1041B00080BC704780B588B002AFF860B9603B60E2
:1041C0001346FB8000237B61FB6893F83930DBB238
:1041D000202B40F08180BB68002B02D0FB88002B95
:1041E00001D1012379E0FB6893F83830012B01D12C
:1041F000022372E0FB68012283F83820FB6800226A
:10420000DA63FB68212283F83920FCF7B1F9786181
:10421000FB68FA889A84FB68FA88DA8441E0FB68D4
:10422000DB8C013B9AB2FB68DA84FB689B68B3F5D0
:10423000805F22D13B6800937B6900228021F8686F
:1042400000F03BFC0346002B01D0032345E0BB6894
:104250003B613B691B881A46FB681B68C2F3080276
:104260005A60FB681B69002B03D1BB680233BB603B
:1042700017E0BB680133BB6013E03B6800937B69C8
:1042800000228021F86800F018FC0346002B01D0C2
:10429000032322E0BB685A1CBA601A78FB681B68CB
:1042A0005A60FB68DB8C002BB9D13B6800937B69BB
:1042B00000224021F86800F000FC0346002B01D0EA
:1042C00003230AE0FB68202283F83920FB680022E0
:1042D00083F83820002300E0022318461837BD4633
:1042E00080BD80B588B002AFF860B9603B6013460E
:1042F000FB8000237B61FB6893F83A30DBB2202B14
:1043000040F08E80BB68002B02D0FB88002B01D1CF
:10431000012386E0FB6893F83830012B01D102239A
:104320007FE0FB68012283F83820FB680022DA6313
:10433000FB68222283F83A20FCF71AF97861FB68BF
:10434000FA889A85FB68FA88DA855BE0FB68DB8D82
:10435000013B9AB2FB68DA85FB689B68B3F5805F26
:104360002BD13B6800937B6900222021F86800F084
:10437000A4FB0346002B01D0032352E0BB683B6142
:10438000FB681B69002B0CD1FB681B685B689BB248
:10439000C3F308039AB23B691A80BB680233BB605F
:1043A00030E0FB681B685B689BB2DBB29AB23B698A
:1043B0001A80BB680133BB6024E03B6800937B69D3
:1043C00000222021F86800F078FB0346002B01D082
:1043D000032326E0FB681B69002B08D1FB681B68E0
:1043E0005968BB685A1CBA60CAB21A700AE0FB6806
:1043F0001B685B68DAB2BB68591CB96002F07F02C7
:10440000D2B21A70FB68DB8D002B9FD1FB68202293
:1044100083F83A20FB68002283F83820002300E06C
:10442000022318461837BD4680BD80B485B000AF62
:10443000F860B9601346FB80FB6893F83930DBB253
:10444000202B30D1BB68002B02D0FB88002B01D180
:10445000012329E0FB6893F83830012B01D10223B6
:1044600022E0FB68012283F83820FB68BA681A62F0
:10447000FB68FA889A84FB68FA88DA84FB68002271
:10448000DA63FB68212283F83920FB68002283F875
:104490003820FB681B68DA68FB681B6842F0800202
:1044A000DA60002300E0022318461437BD4680BCC2
:1044B000704780B485B000AFF860B9601346FB80E8
:1044C000FB6893F83A30DBB2202B40D1BB68002B5D
:1044D00002D0FB88002B01D1012339E0FB6893F85F
:1044E0003830012B01D1022332E0FB68012283F82E
:1044F0003820FB68BA689A62FB68FA889A85FB687C
:10450000FA88DA85FB680022DA63FB68222283F8E6
:104510003A20FB68002283F83820FB681B68DA68C1
:10452000FB681B6842F48072DA60FB681B685A699A
:10453000FB681B6842F001025A61FB681B68DA687D
:10454000FB681B6842F02002DA60002300E00223CF
:1045500018461437BD4680BC7047000080B586B051
:1045600000AFF860B9601346FB80FB6893F8393000
:10457000DBB2202B53D1BB68002B02D0FB88002B71
:1045800001D101234CE0FB6893F83830012B01D1B5
:10459000022345E0FB68012283F83820BA68FB68F3
:1045A0001A62FB68FA889A84FB68FA88DA84FB68E6
:1045B0000022DA63FB68212283F83920FB681B6B39
:1045C000194ADA63FB681B6B184A1A64FB681B6B99
:1045D000174ADA64FB681B6B00221A6507F10803AF
:1045E0007B61FB68186B7B691968FB681B68043387
:1045F0001A46FB88FDF7C2F8FB681B686FF04002A3
:104600001A60FB68002283F83820FB681B685A692F
:10461000FB681B6842F080025A61002300E002231D
:1046200018461837BD4680BD2D4900088749000847
:10463000274A000880B586B000AFF860B96013461D
:10464000FB80FB6893F83A30DBB2202B5BD1BB6870
:10465000002B02D0FB88002B01D1012354E0FB6822
:1046600093F83830012B01D102234DE0FB68012281
:1046700083F83820BA68FB689A62FB68FA889A85E2
:10468000FB680022DA63FB68222283F83A20FB6889
:104690005B6B1F4ADA63FB685B6B1E4A1A64FB683C
:1046A0005B6B1D4ADA64FB685B6B00221A6507F1DD
:1046B00008037B61FB68586BFB681B680433194671
:1046C0007B691A68FB88FDF759F8FB681B68DA6894
:1046D000FB681B6842F48072DA60FB681B685A69E9
:1046E000FB681B6842F001025A61FB681B685A694B
:1046F000FB681B6842F040025A61FB68002283F8A5
:104700003820002300E0022318461837BD4680BD3C
:10471000A34900080B4A0008274A000880B588B062
:1047200000AF78607B681B681B68FB617B681B6857
:10473000DB68BB617B681B685B697B6100233B6155
:104740000023FB60FB6903F00F033B613B69002B17
:104750000DD1FB6903F02003002B08D0BB6903F0E7
:104760002003002B03D0786800F0A4FAC7E03B696F
:10477000002B00F0A7807A6940F201131340002B50
:1047800000F0A080FB6903F00103002B0AD0BB6995
:1047900003F48073002B05D07B68DB6B43F00102D0
:1047A0007B68DA63FB6903F00403002B0AD07B69A2
:1047B00003F00103002B05D07B68DB6B43F00202A2
:1047C0007B68DA63FB6903F00203002B0AD07B6984
:1047D00003F00103002B05D07B68DB6B43F0040280
:1047E0007B68DA63FB6903F00803002B0AD07B695E
:1047F00003F00103002B05D07B68DB6B43F008025C
:104800007B68DA637B68DB6B002B77D0FB6903F096
:104810002003002B07D0BB6903F02003002B02D03C
:10482000786800F047FA7B681B685B6903F0400317
:10483000002B14BF01230023DBB2FB607B68DB6B22
:1048400003F00803002B02D1FB68002B31D07868FD
:1048500000F092F97B681B685B6903F04003002B52
:1048600023D07B681B685A697B681B6822F0400272
:104870005A617B685B6B002B13D07B685B6B214AB2
:104880001A657B685B6B1846FCF7E6FF0346002B56
:1048900016D07B685B6B1B6D7A68526B104698472D
:1048A0000EE0786809F0A6F80AE0786809F0A2F846
:1048B00006E0786809F09EF87B680022DA631DE064
:1048C00000BF1BE0FB6903F08003002B08D0BB692D
:1048D00003F08003002B03D0786800F07EF90EE02F
:1048E000FB6903F04003002B09D0BB6903F04003D0
:1048F000002B04D0786800F0C5F900E000BF203735
:10490000BD4680BDB34B000880B483B000AF786073
:1049100000BF0C37BD4680BC704780B483B000AF89
:10492000786000BF0C37BD4680BC704780B584B04E
:1049300000AF78607B689B6BFB607B681B681B68C3
:1049400003F48073002B17D1FB680022DA84FB6824
:104950001B685A69FB681B6822F080025A61FB6879
:104960001B68DA68FB681B6842F04002DA60FB688B
:10497000202283F8392002E0F86808F09DFC00BF8F
:104980001037BD4680BD80B584B000AF78607B68CD
:104990009B6BFB60F868FFF7B7FF00BF1037BD46A1
:1049A00080BD80B584B000AF78607B689B6BFB6096
:1049B0007B681B681B6803F48073002B1ED1FB68A7
:1049C0000022DA85FB681B68DA68FB681B6822F442
:1049D0008072DA60FB681B685A69FB681B6822F00A
:1049E00001025A61FB681B685A69FB681B6822F068
:1049F00040025A61FB68202283F83A20F86808F0E8
:104A00008BFC00BF1037BD4680BD80B584B000AFC1
:104A100078607B689B6BFB60F868FFF77EFF00BFE8
:104A20001037BD4680BD80B584B000AF78600023EC
:104A3000FB607B689B6BBB60BB681B685B6903F0BA
:104A40008003002B14BF01230023DBB2FB60BB6893
:104A500093F83930DBB2212B08D1FB68002B05D04D
:104A6000BB680022DA84B86800F071F8BB681B6884
:104A70005B6903F04003002B14BF01230023DBB26A
:104A8000FB60BB6893F83A30DBB2222B08D1FB689D
:104A9000002B05D0BB680022DA85B86800F06CF8FE
:104AA000BB68DB6B43F01002BB68DA63B86808F0E0
:104AB000A1FF00BF1037BD4680BD80B584B000AFF8
:104AC000F860B9603B601346FB712CE0BB69B3F141
:104AD000FF3F28D0BB69002B07D0FBF749FD0246FA
:104AE0003B68D31ABA699A421DD2FB681B68DA6820
:104AF000FB681B6822F4D072DA60FB681B685A6995
:104B0000FB681B6822F001025A61FB68202283F8CF
:104B10003920FB68202283F83A20FB68002283F8C2
:104B2000382003230FE0FB681B681A68BB6813403A
:104B3000BA689A420CBF01230023DBB21A46FB7904
:104B40009A42C3D0002318461037BD4680BD80B4BA
:104B500083B000AF78607B681B68DA687B681B688D
:104B600022F0C002DA607B68202283F8392000BF7F
:104B70000C37BD4680BC704780B483B000AF78600E
:104B80007B681B68DA687B681B6822F49072DA60C5
:104B90007B681B685A697B681B6822F001025A61B6
:104BA0007B68202283F83A2000BF0C37BD4680BCCA
:104BB000704780B584B000AF78607B689B6BFB600A
:104BC000FB680022DA85FB680022DA84F86808F0C6
:104BD00011FF00BF1037BD4680BD80B485B000AF67
:104BE00078607B6893F83930DBB2212B44D17B6845
:104BF0009B68B3F5805F1AD17B681B6AFB60FB681A
:104C00001B881A467B681B68C2F308025A607B68DF
:104C10001B69002B05D17B681B6A9A1C7B681A6292
:104C20000EE07B681B6A5A1C7B681A6208E07B688E
:104C30001B6A591C7A6811621A787B681B685A6073
:104C40007B68DB8C013B9AB27B68DA847B68DB8C07
:104C5000002B0FD17B681B68DA687B681B6822F029
:104C60008002DA607B681B68DA687B681B6842F048
:104C70004002DA60002300E0022318461437BD46E4
:104C800080BC704780B582B000AF78607B681B68DD
:104C9000DA687B681B6822F04002DA607B682022B9
:104CA00083F83920786808F007FB00231846083796
:104CB000BD4680BD80B584B000AF78607B6893F856
:104CC0003A30DBB2222B69D17B689B68B3F5805FF9
:104CD00023D17B689B6AFB607B681B69002B0ED12C
:104CE0007B681B685B689BB2C3F308039AB2FB68DE
:104CF0001A807B689B6A9A1C7B689A6229E07B68B1
:104D00001B685B689BB2DBB29AB2FB681A807B6857
:104D10009B6A5A1C7B689A621BE07B681B69002BAC
:104D20000AD17B681B6858687B689B6A591C7A6843
:104D30009162C2B21A700CE07B681B685B68DAB2E1
:104D40007B689B6A581C7968886202F07F02D2B245
:104D50001A707B68DB8D013B9AB27B68DA857B68D1
:104D6000DB8D002B18D17B681B68DA687B681B68B9
:104D700022F49072DA607B681B685A697B681B6852
:104D800022F001025A617B68202283F83A20786879
:104D900008F0C2FA002302E0002300E002231846D4
:104DA0001037BD4680BD0000B0B584B000AF78605C
:104DB0000023FB607B685B68B04A934204D940F2F1
:104DC0005171AF4800F0A6FA7B68DB68002B09D070
:104DD0007B68DB68B3F5005F04D040F25271A848ED
:104DE00000F098FA7B681B69002B0ED07B681B696A
:104DF000B3F5806F09D07B681B69B3F5C06F04D031
:104E000040F253719E4800F085FA7B685A694FF66C
:104E1000F3731340002B03D17B685B69002B04D133
:104E200040F25471964800F075FA7B681B681B6964
:104E3000FB60FB6823F44053FB607B68DB68FA6827
:104E40001343FB607B681B68FA681A617B681B6808
:104E5000DB68FB60FB6823F4164323F00C03FB6064
:104E60007B689A687B681B691A437B685B691A4395
:104E70007B68DB691343FA681343FB607B681B683C
:104E8000FA68DA607B681B685B69FB60FB6823F487
:104E90004073FB607B689B69FA681343FB607B6827
:104EA0001B68FA685A617B68DB69B3F5004F40F014
:104EB000EF807B681B68734A934204D07B681B6851
:104EC000714A93426CD1FDF7CDFF024613469B0019
:104ED00013449A001A447B685B685B00B2FBF3F3EF
:104EE0006A4AA2FB03235B091C01FDF7BBFF0246D4
:104EF00013469B0013449A001A447B685B685B006E
:104F0000B2FBF3F5FDF7AEFF024613469B001344D8
:104F10009A001A447B685B685B00B2FBF3F35B4A60
:104F2000A2FB03235B09642202FB03F3EB1ADB0001
:104F30003233564AA2FB03235B095B0003F4F87388
:104F40001C44FDF78FFF024613469B0013449A0052
:104F50001A447B685B685B00B2FBF3F5FDF782FFE8
:104F6000024613469B0013449A001A447B685B6810
:104F70005B00B2FBF3F3454AA2FB03235B09642207
:104F800002FB03F3EB1ADB003233404AA2FB03239C
:104F90005B0903F007027B681B6822449A6059E1B1
:104FA000FDF73EFF024613469B0013449A001A4445
:104FB0007B685B685B00B2FBF3F3344AA2FB03231C
:104FC0005B091C01FDF72CFF024613469B001344AE
:104FD0009A001A447B685B685B00B2FBF3F5FDF74F
:104FE0001FFF024613469B0013449A001A447B6835
:104FF0005B685B00B2FBF3F3244AA2FB03235B096B
:10500000642202FB03F3EB1ADB0032331F4AA2FBDC
:1050100003235B095B0003F4F8731C44FDF700FFF6
:10502000024613469B0013449A001A447B685B684F
:105030005B00B2FBF3F5FDF7F3FE024613469B005F
:1050400013449A001A447B685B685B00B2FBF3F37D
:105050000E4AA2FB03235B09642202FB03F3EB1A53
:10506000DB003233094AA2FB03235B0903F007028A
:105070007B681B6822449A60ECE000BFA037A00068
:105080000014010800100140001401401F85EB517D
:105090007B681B68714A934204D07B681B68704A26
:1050A00093426BD1FDF7DEFE024613469B0013448C
:1050B0009A001A447B685B689B00B2FBF3F3694A71
:1050C000A2FB03235B091C01FDF7CCFE024613463D
:1050D0009B0013449A001A447B685B689B00B2FBF8
:1050E000F3F5FDF7BFFE024613469B0013449A00FA
:1050F0001A447B685B689B00B2FBF3F3594AA2FB3E
:1051000003235B09642202FB03F3EB1A1B01323316
:10511000544AA2FB03235B0903F0F0031C44FDF790
:10512000A1FE024613469B0013449A001A447B6872
:105130005B689B00B2FBF3F5FDF794FE0246134655
:105140009B0013449A001A447B685B689B00B2FB87
:10515000F3F3444AA2FB03235B09642202FB03F33B
:10516000EB1A1B0132333F4AA2FB03235B0903F016
:105170000F027B681B6822449A606BE0FDF750FECB
:10518000024613469B0013449A001A447B685B68EE
:105190009B00B2FBF3F3334AA2FB03235B091C0120
:1051A000FDF73EFE024613469B0013449A001A4444
:1051B0007B685B689B00B2FBF3F5FDF731FE0246AE
:1051C00013469B0013449A001A447B685B689B005B
:1051D000B2FBF3F3234AA2FB03235B09642202FB25
:1051E00003F3EB1A1B0132331E4AA2FB03235B09B4
:1051F00003F0F0031C44FDF713FE024613469B0028
:1052000013449A001A447B685B689B00B2FBF3F579
:10521000FDF706FE024613469B0013449A001A440B
:105220007B685B689B00B2FBF3F30E4AA2FB03238F
:105230005B09642202FB03F3EB1A1B013233094AB8
:10524000A2FB03235B0903F00F027B681B68224467
:105250009A60FFE700BF1037BD46B0BD00100140A7
:10526000001401401F85EB5180B483B000AF78601B
:10527000FEE7000080B500AF024800F07BF8012097
:10528000FFF7F2FF3014010880B584B000AF7860FA
:10529000144B1B68002B02D1124B134A1A60114B9E
:1052A0001B68FB607B68033323F003037B600D4BBB
:1052B0001A687B6813440D4A934207D90BF018FB18
:1052C00003460C221A604FF0FF3306E0054B1A68C4
:1052D0007B681344034A1360FB6818461037BD46C9
:1052E00080BD00BF84000020E407002000FC0120F6
:1052F00080B483B000AF786039607B6801221A60A7
:105300003B68034A1A6000BF0C37BD4680BC70473B
:105310000400002080B582B000AF786039603A6840
:105320007968024800F004F8FFF7A4FF8814010828
:105330000FB480B582B000AF07F114033B603B6847
:105340003A6980210A480BF0E3FB78607B68002B08
:1053500005DD7B681946064800F024F878607B6814
:1053600018460837BD46BDE8804004B0704700BF0E
:105370008C00002080B582B000AF786078680BF0B8
:1053800093FB03461946786800F00CF801210448A5
:1053900000F008F8034618460837BD4680BD00BF38
:1053A000B414010880B582B000AF78603960396804
:1053B000786800F005F8034618460837BD4680BDFA
:1053C000B0B590B000AF786039607A683B6813443C
:1053D00093F90030002B0BD104233B637B68FB6205
:1053E0003C6BFD6A20462946ABBE0446BC6237E0F2
:1053F0003B68FB6331E0FB6B102B28BF10237B6302
:105400000023BB630EE07B6893F9001007F10C02E8
:10541000BB6B13440A461A70BB6B0133BB637B68DA
:1054200001337B60BA6B7B6B9A42ECD307F10C02C1
:10543000BB6B134400221A7004237B6207F10C0338
:105440003B627C6A3D6A20462946ABBE0446FC614D
:1054500000BFFA6B7B6BD31AFB63FB6B002BCAD1CB
:105460003B6818464037BD46B0BD000080B500AF70
:1054700000F0D0F8024B034A9A6000BF80BD00BF25
:1054800000ED00E00000000880B500AF00F0F0F88B
:1054900000BF80BD80B584B000AFF860B9607A60AD
:1054A0003B603448FFF744FFFB681B6819463248ED
:1054B000FFF73EFFFB685B6819463048FFF738FF8F
:1054C000FB689B6819462E48FFF732FFFB68DB68D4
:1054D00019462C48FFF72CFFFB681B6919462A4820
:1054E000FFF726FFFB685B6919462848FFF720FF96
:1054F000FB689B6919462648FFF71AFFFB68DB69C2
:1055000019462448FFF714FF2348FFF711FFB96835
:105510002248FFF70DFF224BDB6A19462148FFF7AF
:1055200007FF1F4B1B6B19461F48FFF701FF1C4B62
:10553000DB6B19461D48FFF7FBFEBB6803F08003D9
:10554000002B03D079681A48FFF7F2FEBB6803F41A
:105550000043002B03D039681648FFF7E9FE1648D0
:10556000FFF7E6FEB9691548FFF7E2FE00BF103706
:10557000BD4680BDE4140108F414010804150108B7
:1055800014150108241501083415010844150108F3
:1055900054150108641501087415010880150108E7
:1055A00000ED00E090150108A0150108B0150108F4
:1055B000C0150108D0150108E0150108E81501081B
:1055C00080B485B000AF78600B467B807B689B69B8
:1055D000FB60FB681B887A889A4214D17B681B6841
:1055E000BB60BB68032B04D0BB68042B03D0002333
:1055F0000AE000BF00E000BF7B689B699A1C7B68E3
:105600009A61012300E0002318461437BD4680BC90
:105610007047000080B400AF124B1B68114A43F082
:10562000010313600F4B00229A600E4B1B680D4A5A
:1056300023F0847323F4803313600A4B0A4A5A60C0
:10564000084B1B68074A23F480231360054B002294
:10565000DA60064B4FF000629A6000BFBD4680BC26
:10566000704700BF003802401030002400ED00E019
:1056700080B487B000AF00233B6100237B6102232D
:10568000FB600023BB6002237B60344B9B6803F00C
:105690000C033B613B69082B11D03B69082B44D8B4
:1056A0003B69002B03D03B69042B04D03DE02C4B1D
:1056B0002C4A1A603DE02A4B2B4A1A6039E0274BEE
:1056C0005B689B0D03F00103BB60244B5B6803F038
:1056D0003F037B60BB68002B0CD0234A7B68B2FB86
:1056E000F3F31E4A52689209C2F3080202FB03F365
:1056F0007B610BE01B4A7B68B2FBF3F3174A5268ED
:105700009209C2F3080202FB03F37B61134B5B684F
:105710001B0C03F0030301335B00FB607A69FB6839
:10572000B2FBF3F30E4A136003E00D4B0D4A1A600F
:1057300000BF0A4B9B681B0903F00F030B4AD35CA5
:105740003B61074B1A683B6922FA03F3044A136072
:1057500000BF1C37BD4680BC704700BF0038024008
:105760000C0000200024F40000127A002C1601081E
:1057700080B485B000AF786039603B6803337A68E5
:10578000134493F820303B733B6802337A68134428
:1057900093F820307B733B6801337A68134493F8A5
:1057A0002030BB737A683B68134420331B78FB734B
:1057B00007F10C031B6818461437BD4680BC7047C0
:1057C00080B485B000AF78600023FB600123BB602C
:1057D000BB68362B0CDC7A68BB68134420331B781B
:1057E0001A46FB681344FB60BB680133BB60EFE7FC
:1057F000FB68DBB2002B04D1FB68002B01D0012336
:1058000000E0002318461437BD4680BC70470000F6
:1058100080B582B000AF786039607B68224A04337B
:1058200092E803001860043319707B681F4A09333B
:105830001068186012791A717B681D4A0E3310685F
:1058400018609188927999809A717B68194A15330A
:105850001068186012791A717B6801229A767B6849
:105860001B3300221A601A717B6820333722002113
:1058700018460BF059F87B684FF000029A657B6878
:105880004FF00002DA657B684FF000021A667B6811
:105890000022A3F864207B683A681A607B68184687
:1058A0000837BD4680BD00BF3C16010844160108FC
:1058B0004C1601085416010880B584B002AF786018
:1058C0007B681B68184600F002FC034693F83930E9
:1058D000DBB2202B0CBF01230023DBB2002B0DD049
:1058E0007B6801229A767B6818687B6803F1150152
:1058F000022300930023052200F0CBFC00BF0837F1
:10590000BD4680BD80B584B002AF78607B689B7E69
:10591000002B0ED17B6818687B6803F11B01002304
:1059200000936423052200F03EFD7B6801229A76F5
:105930000EE07B689B7E012B0AD17B6818687B6830
:1059400003F12001022300930023372200F02BFDF6
:1059500000BF0837BD4680BD80B586B000AF786017
:105960007868FFF72DFF0346002B79D0282178684F
:10597000FFF7FEFE034618460AF00CFB4FF000024C
:10598000414B0AF0A7F902460B46104619463CA3C4
:10599000D3E900230AF056FB02460B46104619468F
:1059A0004FF00002394B0AF077FC02460B46C7E97C
:1059B00004232C217868FFF7DBFE034618460AF023
:1059C000E9FA2FA3D3E900230AF03CFB02460B4679
:1059D000104619464FF000022C4B0AF05DFC0246BF
:1059E0000B46C7E90223D7E902010AF023FE02466B
:1059F0007B689A65D7E904010AF01CFE02467B68C1
:105A0000DA6530217868FFF7B3FE034618460AF0DE
:105A1000C1FA1BA3D3E900230AF014FB02460B468C
:105A2000104619464FF00002184B0AF035FC0246AA
:105A30000B46104619460AF0FDFD02467B681A66C1
:105A40007B6893F854301B021AB27B6893F8553088
:105A50001BB213431BB29AB27B68A3F864200AE01E
:105A60007B689B7E002B03D17B6801229A7602E043
:105A70000748FFF75DFC00BF1837BD4680BD00BF7B
:105A8000182D4454FB210940008056400080664098
:105A90005C16010880B584B002AF78600B46FB70DD
:105AA000FB78002B0CD07B681B68184600F00FFBBE
:105AB000034693F83930DBB2202B01D1012300E0FB
:105AC0000023002B17D07B6800229A767B68186829
:105AD0007B6803F10E01002300934FF47A730722D1
